{
  "_format": "hh-sol-artifact-1",
  "contractName": "LibraryToken",
  "sourceName": "contracts/LibraryToken.sol",
  "abi": [
    {
      "inputs": [],
      "stateMutability": "nonpayable",
      "type": "constructor"
    },
    {
      "anonymous": false,
      "inputs": [
        {
          "indexed": true,
          "internalType": "address",
          "name": "owner",
          "type": "address"
        },
        {
          "indexed": true,
          "internalType": "address",
          "name": "spender",
          "type": "address"
        },
        {
          "indexed": false,
          "internalType": "uint256",
          "name": "value",
          "type": "uint256"
        }
      ],
      "name": "Approval",
      "type": "event"
    },
    {
      "anonymous": false,
      "inputs": [
        {
          "indexed": true,
          "internalType": "address",
          "name": "previousOwner",
          "type": "address"
        },
        {
          "indexed": true,
          "internalType": "address",
          "name": "newOwner",
          "type": "address"
        }
      ],
      "name": "OwnershipTransferred",
      "type": "event"
    },
    {
      "anonymous": false,
      "inputs": [
        {
          "indexed": true,
          "internalType": "address",
          "name": "from",
          "type": "address"
        },
        {
          "indexed": true,
          "internalType": "address",
          "name": "to",
          "type": "address"
        },
        {
          "indexed": false,
          "internalType": "uint256",
          "name": "value",
          "type": "uint256"
        }
      ],
      "name": "Transfer",
      "type": "event"
    },
    {
      "inputs": [],
      "name": "DOMAIN_SEPARATOR",
      "outputs": [
        {
          "internalType": "bytes32",
          "name": "",
          "type": "bytes32"
        }
      ],
      "stateMutability": "view",
      "type": "function"
    },
    {
      "inputs": [],
      "name": "PERMIT_TYPEHASH",
      "outputs": [
        {
          "internalType": "bytes32",
          "name": "",
          "type": "bytes32"
        }
      ],
      "stateMutability": "view",
      "type": "function"
    },
    {
      "inputs": [
        {
          "internalType": "address",
          "name": "owner",
          "type": "address"
        },
        {
          "internalType": "address",
          "name": "spender",
          "type": "address"
        }
      ],
      "name": "allowance",
      "outputs": [
        {
          "internalType": "uint256",
          "name": "",
          "type": "uint256"
        }
      ],
      "stateMutability": "view",
      "type": "function"
    },
    {
      "inputs": [
        {
          "internalType": "address",
          "name": "spender",
          "type": "address"
        },
        {
          "internalType": "uint256",
          "name": "amount",
          "type": "uint256"
        }
      ],
      "name": "approve",
      "outputs": [
        {
          "internalType": "bool",
          "name": "",
          "type": "bool"
        }
      ],
      "stateMutability": "nonpayable",
      "type": "function"
    },
    {
      "inputs": [
        {
          "internalType": "address",
          "name": "account",
          "type": "address"
        }
      ],
      "name": "balanceOf",
      "outputs": [
        {
          "internalType": "uint256",
          "name": "",
          "type": "uint256"
        }
      ],
      "stateMutability": "view",
      "type": "function"
    },
    {
      "inputs": [],
      "name": "decimals",
      "outputs": [
        {
          "internalType": "uint8",
          "name": "",
          "type": "uint8"
        }
      ],
      "stateMutability": "view",
      "type": "function"
    },
    {
      "inputs": [
        {
          "internalType": "address",
          "name": "spender",
          "type": "address"
        },
        {
          "internalType": "uint256",
          "name": "subtractedValue",
          "type": "uint256"
        }
      ],
      "name": "decreaseAllowance",
      "outputs": [
        {
          "internalType": "bool",
          "name": "",
          "type": "bool"
        }
      ],
      "stateMutability": "nonpayable",
      "type": "function"
    },
    {
      "inputs": [
        {
          "internalType": "address",
          "name": "spender",
          "type": "address"
        },
        {
          "internalType": "uint256",
          "name": "addedValue",
          "type": "uint256"
        }
      ],
      "name": "increaseAllowance",
      "outputs": [
        {
          "internalType": "bool",
          "name": "",
          "type": "bool"
        }
      ],
      "stateMutability": "nonpayable",
      "type": "function"
    },
    {
      "inputs": [
        {
          "internalType": "uint256",
          "name": "amount",
          "type": "uint256"
        }
      ],
      "name": "mint",
      "outputs": [],
      "stateMutability": "nonpayable",
      "type": "function"
    },
    {
      "inputs": [],
      "name": "name",
      "outputs": [
        {
          "internalType": "string",
          "name": "",
          "type": "string"
        }
      ],
      "stateMutability": "view",
      "type": "function"
    },
    {
      "inputs": [
        {
          "internalType": "address",
          "name": "",
          "type": "address"
        }
      ],
      "name": "nonces",
      "outputs": [
        {
          "internalType": "uint256",
          "name": "",
          "type": "uint256"
        }
      ],
      "stateMutability": "view",
      "type": "function"
    },
    {
      "inputs": [],
      "name": "owner",
      "outputs": [
        {
          "internalType": "address",
          "name": "",
          "type": "address"
        }
      ],
      "stateMutability": "view",
      "type": "function"
    },
    {
      "inputs": [
        {
          "internalType": "address",
          "name": "owner",
          "type": "address"
        },
        {
          "internalType": "address",
          "name": "spender",
          "type": "address"
        },
        {
          "internalType": "uint256",
          "name": "value",
          "type": "uint256"
        },
        {
          "internalType": "uint256",
          "name": "deadline",
          "type": "uint256"
        },
        {
          "internalType": "uint8",
          "name": "v",
          "type": "uint8"
        },
        {
          "internalType": "bytes32",
          "name": "r",
          "type": "bytes32"
        },
        {
          "internalType": "bytes32",
          "name": "s",
          "type": "bytes32"
        }
      ],
      "name": "permit",
      "outputs": [],
      "stateMutability": "nonpayable",
      "type": "function"
    },
    {
      "inputs": [],
      "name": "renounceOwnership",
      "outputs": [],
      "stateMutability": "nonpayable",
      "type": "function"
    },
    {
      "inputs": [],
      "name": "symbol",
      "outputs": [
        {
          "internalType": "string",
          "name": "",
          "type": "string"
        }
      ],
      "stateMutability": "view",
      "type": "function"
    },
    {
      "inputs": [],
      "name": "totalSupply",
      "outputs": [
        {
          "internalType": "uint256",
          "name": "",
          "type": "uint256"
        }
      ],
      "stateMutability": "view",
      "type": "function"
    },
    {
      "inputs": [
        {
          "internalType": "address",
          "name": "to",
          "type": "address"
        },
        {
          "internalType": "uint256",
          "name": "amount",
          "type": "uint256"
        }
      ],
      "name": "transfer",
      "outputs": [
        {
          "internalType": "bool",
          "name": "",
          "type": "bool"
        }
      ],
      "stateMutability": "nonpayable",
      "type": "function"
    },
    {
      "inputs": [
        {
          "internalType": "address",
          "name": "from",
          "type": "address"
        },
        {
          "internalType": "address",
          "name": "to",
          "type": "address"
        },
        {
          "internalType": "uint256",
          "name": "amount",
          "type": "uint256"
        }
      ],
      "name": "transferFrom",
      "outputs": [
        {
          "internalType": "bool",
          "name": "",
          "type": "bool"
        }
      ],
      "stateMutability": "nonpayable",
      "type": "function"
    },
    {
      "inputs": [
        {
          "internalType": "address",
          "name": "newOwner",
          "type": "address"
        }
      ],
      "name": "transferOwnership",
      "outputs": [],
      "stateMutability": "nonpayable",
      "type": "function"
    }
  ],
  "bytecode": "0x60806040523480156200001157600080fd5b506040518060400160405280600c81526020017f4c696272617279546f6b656e00000000000000000000000000000000000000008152506040518060400160405280600381526020017f4c4942000000000000000000000000000000000000000000000000000000000081525081600390805190602001906200009692919062000273565b508060049080519060200190620000af92919062000273565b505050620000d2620000c6620001a560201b60201c565b620001ad60201b60201c565b7f91ab3d17e3a50a9d89e63fd30b92be7f5336b03b287bb946787a83a9d62a27666040518060400160405280600c81526020017f4c696272617279546f6b656e0000000000000000000000000000000000000000815250805190602001206040518060400160405280600181526020017f3100000000000000000000000000000000000000000000000000000000000000815250805190602001203060405160200162000183949392919062000345565b6040516020818303038152906040528051906020012060068190555062000435565b600033905090565b6000600560009054906101000a900473ffffffffffffffffffffffffffffffffffffffff16905081600560006101000a81548173ffffffffffffffffffffffffffffffffffffffff021916908373ffffffffffffffffffffffffffffffffffffffff1602179055508173ffffffffffffffffffffffffffffffffffffffff168173ffffffffffffffffffffffffffffffffffffffff167f8be0079c531659141344cd1fd0a4f28419497f9722a3daafe3b4186f6b6457e060405160405180910390a35050565b8280546200028190620003d0565b90600052602060002090601f016020900481019282620002a55760008555620002f1565b82601f10620002c057805160ff1916838001178555620002f1565b82800160010185558215620002f1579182015b82811115620002f0578251825591602001919060010190620002d3565b5b50905062000300919062000304565b5090565b5b808211156200031f57600081600090555060010162000305565b5090565b6200032e8162000392565b82525050565b6200033f81620003a6565b82525050565b60006080820190506200035c600083018762000334565b6200036b602083018662000334565b6200037a604083018562000334565b62000389606083018462000323565b95945050505050565b60006200039f82620003b0565b9050919050565b6000819050919050565b600073ffffffffffffffffffffffffffffffffffffffff82169050919050565b60006002820490506001821680620003e957607f821691505b602082108114156200040057620003ff62000406565b5b50919050565b7f4e487b7100000000000000000000000000000000000000000000000000000000600052602260045260246000fd5b611f6080620004456000396000f3fe608060405234801561001057600080fd5b50600436106101215760003560e01c8063715018a6116100ad578063a457c2d711610071578063a457c2d71461030e578063a9059cbb1461033e578063d505accf1461036e578063dd62ed3e1461038a578063f2fde38b146103ba57610121565b8063715018a61461027c5780637ecebe00146102865780638da5cb5b146102b657806395d89b41146102d4578063a0712d68146102f257610121565b806330adf81f116100f457806330adf81f146101c2578063313ce567146101e05780633644e515146101fe578063395093511461021c57806370a082311461024c57610121565b806306fdde0314610126578063095ea7b31461014457806318160ddd1461017457806323b872dd14610192575b600080fd5b61012e6103d6565b60405161013b9190611af3565b60405180910390f35b61015e60048036038101906101599190611455565b610468565b60405161016b9190611a17565b60405180910390f35b61017c61048b565b6040516101899190611c95565b60405180910390f35b6101ac60048036038101906101a79190611368565b610495565b6040516101b99190611a17565b60405180910390f35b6101ca6104c4565b6040516101d79190611a32565b60405180910390f35b6101e86104eb565b6040516101f59190611cb0565b60405180910390f35b6102066104f4565b6040516102139190611a32565b60405180910390f35b61023660048036038101906102319190611455565b6104fa565b6040516102439190611a17565b60405180910390f35b61026660048036038101906102619190611303565b610531565b6040516102739190611c95565b60405180910390f35b610284610579565b005b6102a0600480360381019061029b9190611303565b610601565b6040516102ad9190611c95565b60405180910390f35b6102be610619565b6040516102cb91906119fc565b60405180910390f35b6102dc610643565b6040516102e99190611af3565b60405180910390f35b61030c60048036038101906103079190611491565b6106d5565b005b61032860048036038101906103239190611455565b61075e565b6040516103359190611a17565b60405180910390f35b61035860048036038101906103539190611455565b6107d5565b6040516103659190611a17565b60405180910390f35b610388600480360381019061038391906113b7565b6107f8565b005b6103a4600480360381019061039f919061132c565b610a20565b6040516103b19190611c95565b60405180910390f35b6103d460048036038101906103cf9190611303565b610aa7565b005b6060600380546103e590611dda565b80601f016020809104026020016040519081016040528092919081815260200182805461041190611dda565b801561045e5780601f106104335761010080835404028352916020019161045e565b820191906000526020600020905b81548152906001019060200180831161044157829003601f168201915b5050505050905090565b600080610473610b9f565b9050610480818585610ba7565b600191505092915050565b6000600254905090565b6000806104a0610b9f565b90506104ad858285610d72565b6104b8858585610dfe565b60019150509392505050565b7f6e71edae12b1b97f4d1f60370fef10105fa2faae0126114a169c64845d6126c960001b81565b60006012905090565b60065481565b600080610505610b9f565b90506105268185856105178589610a20565b6105219190611cf2565b610ba7565b600191505092915050565b60008060008373ffffffffffffffffffffffffffffffffffffffff1673ffffffffffffffffffffffffffffffffffffffff168152602001908152602001600020549050919050565b610581610b9f565b73ffffffffffffffffffffffffffffffffffffffff1661059f610619565b73ffffffffffffffffffffffffffffffffffffffff16146105f5576040517f08c379a00000000000000000000000000000000000000000000000000000000081526004016105ec90611bb5565b60405180910390fd5b6105ff600061107f565b565b60076020528060005260406000206000915090505481565b6000600560009054906101000a900473ffffffffffffffffffffffffffffffffffffffff16905090565b60606004805461065290611dda565b80601f016020809104026020016040519081016040528092919081815260200182805461067e90611dda565b80156106cb5780601f106106a0576101008083540402835291602001916106cb565b820191906000526020600020905b8154815290600101906020018083116106ae57829003601f168201915b5050505050905090565b6106dd610b9f565b73ffffffffffffffffffffffffffffffffffffffff166106fb610619565b73ffffffffffffffffffffffffffffffffffffffff1614610751576040517f08c379a000000000000000000000000000000000000000000000000000000000815260040161074890611bb5565b60405180910390fd5b61075b3382611145565b50565b600080610769610b9f565b905060006107778286610a20565b9050838110156107bc576040517f08c379a00000000000000000000000000000000000000000000000000000000081526004016107b390611c55565b60405180910390fd5b6107c98286868403610ba7565b60019250505092915050565b6000806107e0610b9f565b90506107ed818585610dfe565b600191505092915050565b4284101561083b576040517f08c379a000000000000000000000000000000000000000000000000000000000815260040161083290611bd5565b60405180910390fd5b60006006547f6e71edae12b1b97f4d1f60370fef10105fa2faae0126114a169c64845d6126c960001b898989600760008e73ffffffffffffffffffffffffffffffffffffffff1673ffffffffffffffffffffffffffffffffffffffff16815260200190815260200160002060008154809291906108b790611e0c565b919050558a6040516020016108d196959493929190611a4d565b604051602081830303815290604052805190602001206040516020016108f89291906119c5565b6040516020818303038152906040528051906020012090506000600182868686604051600081526020016040526040516109359493929190611aae565b6020604051602081039080840390855afa158015610957573d6000803e3d6000fd5b505050602060405103519050600073ffffffffffffffffffffffffffffffffffffffff168173ffffffffffffffffffffffffffffffffffffffff16141580156109cb57508873ffffffffffffffffffffffffffffffffffffffff168173ffffffffffffffffffffffffffffffffffffffff16145b610a0a576040517f08c379a0000000000000000000000000000000000000000000000000000000008152600401610a0190611bf5565b60405180910390fd5b610a15898989610ba7565b505050505050505050565b6000600160008473ffffffffffffffffffffffffffffffffffffffff1673ffffffffffffffffffffffffffffffffffffffff16815260200190815260200160002060008373ffffffffffffffffffffffffffffffffffffffff1673ffffffffffffffffffffffffffffffffffffffff16815260200190815260200160002054905092915050565b610aaf610b9f565b73ffffffffffffffffffffffffffffffffffffffff16610acd610619565b73ffffffffffffffffffffffffffffffffffffffff1614610b23576040517f08c379a0000000000000000000000000000000000000000000000000000000008152600401610b1a90611bb5565b60405180910390fd5b600073ffffffffffffffffffffffffffffffffffffffff168173ffffffffffffffffffffffffffffffffffffffff161415610b93576040517f08c379a0000000000000000000000000000000000000000000000000000000008152600401610b8a90611b35565b60405180910390fd5b610b9c8161107f565b50565b600033905090565b600073ffffffffffffffffffffffffffffffffffffffff168373ffffffffffffffffffffffffffffffffffffffff161415610c17576040517f08c379a0000000000000000000000000000000000000000000000000000000008152600401610c0e90611c35565b60405180910390fd5b600073ffffffffffffffffffffffffffffffffffffffff168273ffffffffffffffffffffffffffffffffffffffff161415610c87576040517f08c379a0000000000000000000000000000000000000000000000000000000008152600401610c7e90611b55565b60405180910390fd5b80600160008573ffffffffffffffffffffffffffffffffffffffff1673ffffffffffffffffffffffffffffffffffffffff16815260200190815260200160002060008473ffffffffffffffffffffffffffffffffffffffff1673ffffffffffffffffffffffffffffffffffffffff168152602001908152602001600020819055508173ffffffffffffffffffffffffffffffffffffffff168373ffffffffffffffffffffffffffffffffffffffff167f8c5be1e5ebec7d5bd14f71427d1e84f3dd0314c0f7b2291e5b200ac8c7c3b92583604051610d659190611c95565b60405180910390a3505050565b6000610d7e8484610a20565b90507fffffffffffffffffffffffffffffffffffffffffffffffffffffffffffffffff8114610df85781811015610dea576040517f08c379a0000000000000000000000000000000000000000000000000000000008152600401610de190611b75565b60405180910390fd5b610df78484848403610ba7565b5b50505050565b600073ffffffffffffffffffffffffffffffffffffffff168373ffffffffffffffffffffffffffffffffffffffff161415610e6e576040517f08c379a0000000000000000000000000000000000000000000000000000000008152600401610e6590611c15565b60405180910390fd5b600073ffffffffffffffffffffffffffffffffffffffff168273ffffffffffffffffffffffffffffffffffffffff161415610ede576040517f08c379a0000000000000000000000000000000000000000000000000000000008152600401610ed590611b15565b60405180910390fd5b610ee98383836112a5565b60008060008573ffffffffffffffffffffffffffffffffffffffff1673ffffffffffffffffffffffffffffffffffffffff16815260200190815260200160002054905081811015610f6f576040517f08c379a0000000000000000000000000000000000000000000000000000000008152600401610f6690611b95565b60405180910390fd5b8181036000808673ffffffffffffffffffffffffffffffffffffffff1673ffffffffffffffffffffffffffffffffffffffff16815260200190815260200160002081905550816000808573ffffffffffffffffffffffffffffffffffffffff1673ffffffffffffffffffffffffffffffffffffffff16815260200190815260200160002060008282546110029190611cf2565b925050819055508273ffffffffffffffffffffffffffffffffffffffff168473ffffffffffffffffffffffffffffffffffffffff167fddf252ad1be2c89b69c2b068fc378daa952ba7f163c4a11628f55a4df523b3ef846040516110669190611c95565b60405180910390a36110798484846112aa565b50505050565b6000600560009054906101000a900473ffffffffffffffffffffffffffffffffffffffff16905081600560006101000a81548173ffffffffffffffffffffffffffffffffffffffff021916908373ffffffffffffffffffffffffffffffffffffffff1602179055508173ffffffffffffffffffffffffffffffffffffffff168173ffffffffffffffffffffffffffffffffffffffff167f8be0079c531659141344cd1fd0a4f28419497f9722a3daafe3b4186f6b6457e060405160405180910390a35050565b600073ffffffffffffffffffffffffffffffffffffffff168273ffffffffffffffffffffffffffffffffffffffff1614156111b5576040517f08c379a00000000000000000000000000000000000000000000000000000000081526004016111ac90611c75565b60405180910390fd5b6111c1600083836112a5565b80600260008282546111d39190611cf2565b92505081905550806000808473ffffffffffffffffffffffffffffffffffffffff1673ffffffffffffffffffffffffffffffffffffffff16815260200190815260200160002060008282546112289190611cf2565b925050819055508173ffffffffffffffffffffffffffffffffffffffff16600073ffffffffffffffffffffffffffffffffffffffff167fddf252ad1be2c89b69c2b068fc378daa952ba7f163c4a11628f55a4df523b3ef8360405161128d9190611c95565b60405180910390a36112a1600083836112aa565b5050565b505050565b505050565b6000813590506112be81611ece565b92915050565b6000813590506112d381611ee5565b92915050565b6000813590506112e881611efc565b92915050565b6000813590506112fd81611f13565b92915050565b60006020828403121561131557600080fd5b6000611323848285016112af565b91505092915050565b6000806040838503121561133f57600080fd5b600061134d858286016112af565b925050602061135e858286016112af565b9150509250929050565b60008060006060848603121561137d57600080fd5b600061138b868287016112af565b935050602061139c868287016112af565b92505060406113ad868287016112d9565b9150509250925092565b600080600080600080600060e0888a0312156113d257600080fd5b60006113e08a828b016112af565b97505060206113f18a828b016112af565b96505060406114028a828b016112d9565b95505060606114138a828b016112d9565b94505060806114248a828b016112ee565b93505060a06114358a828b016112c4565b92505060c06114468a828b016112c4565b91505092959891949750929550565b6000806040838503121561146857600080fd5b6000611476858286016112af565b9250506020611487858286016112d9565b9150509250929050565b6000602082840312156114a357600080fd5b60006114b1848285016112d9565b91505092915050565b6114c381611d48565b82525050565b6114d281611d5a565b82525050565b6114e181611d66565b82525050565b6114f86114f382611d66565b611e55565b82525050565b600061150982611ccb565b6115138185611cd6565b9350611523818560208601611da7565b61152c81611ebd565b840191505092915050565b6000611544602383611cd6565b91507f45524332303a207472616e7366657220746f20746865207a65726f206164647260008301527f65737300000000000000000000000000000000000000000000000000000000006020830152604082019050919050565b60006115aa602683611cd6565b91507f4f776e61626c653a206e6577206f776e657220697320746865207a65726f206160008301527f64647265737300000000000000000000000000000000000000000000000000006020830152604082019050919050565b6000611610602283611cd6565b91507f45524332303a20617070726f766520746f20746865207a65726f20616464726560008301527f73730000000000000000000000000000000000000000000000000000000000006020830152604082019050919050565b6000611676600283611ce7565b91507f19010000000000000000000000000000000000000000000000000000000000006000830152600282019050919050565b60006116b6601d83611cd6565b91507f45524332303a20696e73756666696369656e7420616c6c6f77616e63650000006000830152602082019050919050565b60006116f6602683611cd6565b91507f45524332303a207472616e7366657220616d6f756e742065786365656473206260008301527f616c616e636500000000000000000000000000000000000000000000000000006020830152604082019050919050565b600061175c602083611cd6565b91507f4f776e61626c653a2063616c6c6572206973206e6f7420746865206f776e65726000830152602082019050919050565b600061179c601883611cd6565b91507f4552433230576974685065726d69743a204558504952454400000000000000006000830152602082019050919050565b60006117dc602283611cd6565b91507f4552433230576974685065726d69743a20494e56414c49445f5349474e41545560008301527f52450000000000000000000000000000000000000000000000000000000000006020830152604082019050919050565b6000611842602583611cd6565b91507f45524332303a207472616e736665722066726f6d20746865207a65726f20616460008301527f64726573730000000000000000000000000000000000000000000000000000006020830152604082019050919050565b60006118a8602483611cd6565b91507f45524332303a20617070726f76652066726f6d20746865207a65726f2061646460008301527f72657373000000000000000000000000000000000000000000000000000000006020830152604082019050919050565b600061190e602583611cd6565b91507f45524332303a2064656372656173656420616c6c6f77616e63652062656c6f7760008301527f207a65726f0000000000000000000000000000000000000000000000000000006020830152604082019050919050565b6000611974601f83611cd6565b91507f45524332303a206d696e7420746f20746865207a65726f2061646472657373006000830152602082019050919050565b6119b081611d90565b82525050565b6119bf81611d9a565b82525050565b60006119d082611669565b91506119dc82856114e7565b6020820191506119ec82846114e7565b6020820191508190509392505050565b6000602082019050611a1160008301846114ba565b92915050565b6000602082019050611a2c60008301846114c9565b92915050565b6000602082019050611a4760008301846114d8565b92915050565b600060c082019050611a6260008301896114d8565b611a6f60208301886114ba565b611a7c60408301876114ba565b611a8960608301866119a7565b611a9660808301856119a7565b611aa360a08301846119a7565b979650505050505050565b6000608082019050611ac360008301876114d8565b611ad060208301866119b6565b611add60408301856114d8565b611aea60608301846114d8565b95945050505050565b60006020820190508181036000830152611b0d81846114fe565b905092915050565b60006020820190508181036000830152611b2e81611537565b9050919050565b60006020820190508181036000830152611b4e8161159d565b9050919050565b60006020820190508181036000830152611b6e81611603565b9050919050565b60006020820190508181036000830152611b8e816116a9565b9050919050565b60006020820190508181036000830152611bae816116e9565b9050919050565b60006020820190508181036000830152611bce8161174f565b9050919050565b60006020820190508181036000830152611bee8161178f565b9050919050565b60006020820190508181036000830152611c0e816117cf565b9050919050565b60006020820190508181036000830152611c2e81611835565b9050919050565b60006020820190508181036000830152611c4e8161189b565b9050919050565b60006020820190508181036000830152611c6e81611901565b9050919050565b60006020820190508181036000830152611c8e81611967565b9050919050565b6000602082019050611caa60008301846119a7565b92915050565b6000602082019050611cc560008301846119b6565b92915050565b600081519050919050565b600082825260208201905092915050565b600081905092915050565b6000611cfd82611d90565b9150611d0883611d90565b9250827fffffffffffffffffffffffffffffffffffffffffffffffffffffffffffffffff03821115611d3d57611d3c611e5f565b5b828201905092915050565b6000611d5382611d70565b9050919050565b60008115159050919050565b6000819050919050565b600073ffffffffffffffffffffffffffffffffffffffff82169050919050565b6000819050919050565b600060ff82169050919050565b60005b83811015611dc5578082015181840152602081019050611daa565b83811115611dd4576000848401525b50505050565b60006002820490506001821680611df257607f821691505b60208210811415611e0657611e05611e8e565b5b50919050565b6000611e1782611d90565b91507fffffffffffffffffffffffffffffffffffffffffffffffffffffffffffffffff821415611e4a57611e49611e5f565b5b600182019050919050565b6000819050919050565b7f4e487b7100000000000000000000000000000000000000000000000000000000600052601160045260246000fd5b7f4e487b7100000000000000000000000000000000000000000000000000000000600052602260045260246000fd5b6000601f19601f8301169050919050565b611ed781611d48565b8114611ee257600080fd5b50565b611eee81611d66565b8114611ef957600080fd5b50565b611f0581611d90565b8114611f1057600080fd5b50565b611f1c81611d9a565b8114611f2757600080fd5b5056fea2646970667358221220efbd2da7eaea6206f5e60cd71e81150370a67cac708156b96d58ef8617ac04e264736f6c63430008000033",
  "linkReferences": {},
  "deployedLinkReferences": {}
}