{
  "_format": "hh-sol-artifact-1",
  "contractName": "Library",
  "sourceName": "contracts/Library.sol",
  "abi": [
    {
      "inputs": [
        {
          "internalType": "address",
          "name": "tokenAddress",
          "type": "address"
        }
      ],
      "stateMutability": "nonpayable",
      "type": "constructor"
    },
    {
      "anonymous": false,
      "inputs": [
        {
          "indexed": false,
          "internalType": "bytes32",
          "name": "id",
          "type": "bytes32"
        },
        {
          "indexed": false,
          "internalType": "string",
          "name": "name",
          "type": "string"
        },
        {
          "indexed": false,
          "internalType": "uint8",
          "name": "copies",
          "type": "uint8"
        }
      ],
      "name": "BookAdded",
      "type": "event"
    },
    {
      "anonymous": false,
      "inputs": [
        {
          "indexed": false,
          "internalType": "bytes32",
          "name": "bookId",
          "type": "bytes32"
        },
        {
          "indexed": false,
          "internalType": "address",
          "name": "userAddress",
          "type": "address"
        }
      ],
      "name": "BookReturned",
      "type": "event"
    },
    {
      "anonymous": false,
      "inputs": [
        {
          "indexed": false,
          "internalType": "bytes32",
          "name": "bookId",
          "type": "bytes32"
        },
        {
          "indexed": false,
          "internalType": "address",
          "name": "userAddress",
          "type": "address"
        }
      ],
      "name": "BookTaken",
      "type": "event"
    },
    {
      "anonymous": false,
      "inputs": [
        {
          "indexed": false,
          "internalType": "bytes32",
          "name": "id",
          "type": "bytes32"
        },
        {
          "indexed": false,
          "internalType": "uint8",
          "name": "newQuantity",
          "type": "uint8"
        }
      ],
      "name": "BookUpdated",
      "type": "event"
    },
    {
      "anonymous": false,
      "inputs": [
        {
          "indexed": true,
          "internalType": "address",
          "name": "previousOwner",
          "type": "address"
        },
        {
          "indexed": true,
          "internalType": "address",
          "name": "newOwner",
          "type": "address"
        }
      ],
      "name": "OwnershipTransferred",
      "type": "event"
    },
    {
      "inputs": [
        {
          "internalType": "string",
          "name": "name",
          "type": "string"
        },
        {
          "internalType": "uint8",
          "name": "copies",
          "type": "uint8"
        }
      ],
      "name": "addBook",
      "outputs": [],
      "stateMutability": "nonpayable",
      "type": "function"
    },
    {
      "inputs": [
        {
          "internalType": "uint256",
          "name": "",
          "type": "uint256"
        }
      ],
      "name": "bookIds",
      "outputs": [
        {
          "internalType": "bytes32",
          "name": "",
          "type": "bytes32"
        }
      ],
      "stateMutability": "view",
      "type": "function"
    },
    {
      "inputs": [
        {
          "internalType": "bytes32",
          "name": "",
          "type": "bytes32"
        }
      ],
      "name": "books",
      "outputs": [
        {
          "internalType": "string",
          "name": "name",
          "type": "string"
        },
        {
          "internalType": "uint8",
          "name": "copies",
          "type": "uint8"
        }
      ],
      "stateMutability": "view",
      "type": "function"
    },
    {
      "inputs": [
        {
          "internalType": "bytes32",
          "name": "id",
          "type": "bytes32"
        }
      ],
      "name": "getAddressesByBookId",
      "outputs": [
        {
          "internalType": "address[]",
          "name": "",
          "type": "address[]"
        }
      ],
      "stateMutability": "view",
      "type": "function"
    },
    {
      "inputs": [],
      "name": "getAllBooksLength",
      "outputs": [
        {
          "internalType": "uint256",
          "name": "",
          "type": "uint256"
        }
      ],
      "stateMutability": "view",
      "type": "function"
    },
    {
      "inputs": [
        {
          "internalType": "bytes32",
          "name": "id",
          "type": "bytes32"
        }
      ],
      "name": "getBook",
      "outputs": [],
      "stateMutability": "nonpayable",
      "type": "function"
    },
    {
      "inputs": [
        {
          "internalType": "bytes32",
          "name": "bookId",
          "type": "bytes32"
        },
        {
          "internalType": "uint256",
          "name": "value",
          "type": "uint256"
        },
        {
          "internalType": "uint256",
          "name": "deadline",
          "type": "uint256"
        },
        {
          "internalType": "uint8",
          "name": "v",
          "type": "uint8"
        },
        {
          "internalType": "bytes32",
          "name": "r",
          "type": "bytes32"
        },
        {
          "internalType": "bytes32",
          "name": "s",
          "type": "bytes32"
        }
      ],
      "name": "getBookWithPermit",
      "outputs": [],
      "stateMutability": "nonpayable",
      "type": "function"
    },
    {
      "inputs": [
        {
          "internalType": "bytes32",
          "name": "id",
          "type": "bytes32"
        }
      ],
      "name": "getCurrentBorrowStatus",
      "outputs": [
        {
          "internalType": "enum Library.BorrowStatus",
          "name": "",
          "type": "uint8"
        }
      ],
      "stateMutability": "view",
      "type": "function"
    },
    {
      "inputs": [],
      "name": "owner",
      "outputs": [
        {
          "internalType": "address",
          "name": "",
          "type": "address"
        }
      ],
      "stateMutability": "view",
      "type": "function"
    },
    {
      "inputs": [],
      "name": "renounceOwnership",
      "outputs": [],
      "stateMutability": "nonpayable",
      "type": "function"
    },
    {
      "inputs": [
        {
          "internalType": "bytes32",
          "name": "id",
          "type": "bytes32"
        }
      ],
      "name": "returnBook",
      "outputs": [],
      "stateMutability": "nonpayable",
      "type": "function"
    },
    {
      "inputs": [
        {
          "internalType": "address",
          "name": "newOwner",
          "type": "address"
        }
      ],
      "name": "transferOwnership",
      "outputs": [],
      "stateMutability": "nonpayable",
      "type": "function"
    },
    {
      "inputs": [
        {
          "internalType": "bytes32",
          "name": "id",
          "type": "bytes32"
        },
        {
          "internalType": "uint8",
          "name": "copies",
          "type": "uint8"
        }
      ],
      "name": "updateBook",
      "outputs": [],
      "stateMutability": "nonpayable",
      "type": "function"
    }
  ],
  "bytecode": "0x608060405266b1a2bc2ec500006002556658d15e176280006003553480156200002757600080fd5b50604051620027fd380380620027fd83398181016040528101906200004d919062000198565b6200006d62000061620000b560201b60201c565b620000bd60201b60201c565b80600160006101000a81548173ffffffffffffffffffffffffffffffffffffffff021916908373ffffffffffffffffffffffffffffffffffffffff1602179055505062000212565b600033905090565b60008060009054906101000a900473ffffffffffffffffffffffffffffffffffffffff169050816000806101000a81548173ffffffffffffffffffffffffffffffffffffffff021916908373ffffffffffffffffffffffffffffffffffffffff1602179055508173ffffffffffffffffffffffffffffffffffffffff168173ffffffffffffffffffffffffffffffffffffffff167f8be0079c531659141344cd1fd0a4f28419497f9722a3daafe3b4186f6b6457e060405160405180910390a35050565b6000815190506200019281620001f8565b92915050565b600060208284031215620001ab57600080fd5b6000620001bb8482850162000181565b91505092915050565b6000620001d182620001d8565b9050919050565b600073ffffffffffffffffffffffffffffffffffffffff82169050919050565b6200020381620001c4565b81146200020f57600080fd5b50565b6125db80620002226000396000f3fe608060405234801561001057600080fd5b50600436106100cf5760003560e01c8063a2544b171161008c578063ad1a7d0c11610066578063ad1a7d0c146101eb578063c051e36814610207578063d3cc715f14610237578063f2fde38b14610267576100cf565b8063a2544b1714610197578063a63ac38e146101b3578063aabc0a3f146101cf576100cf565b80630c0dee70146100d457806312775c16146101055780632e060baa14610121578063513073b81461013f578063715018a61461016f5780638da5cb5b14610179575b600080fd5b6100ee60048036038101906100e991906119b9565b610283565b6040516100fc9291906120e2565b60405180910390f35b61011f600480360381019061011a91906119b9565b61033c565b005b61012961070b565b6040516101369190612212565b60405180910390f35b61015960048036038101906101549190611afb565b610718565b604051610166919061201c565b60405180910390f35b61017761073c565b005b6101816107c4565b60405161018e9190611f10565b60405180910390f35b6101b160048036038101906101ac91906119e2565b6107ed565b005b6101cd60048036038101906101c89190611aa7565b610897565b005b6101e960048036038101906101e49190611a6b565b610abf565b005b610205600480360381019061020091906119b9565b610cad565b005b610221600480360381019061021c91906119b9565b611306565b60405161022e91906120c7565b60405180910390f35b610251600480360381019061024c91906119b9565b61145b565b60405161025e9190611ffa565b60405180910390f35b610281600480360381019061027c9190611967565b6115ea565b005b60046020528060005260406000206000915090508060000180546102a69061241f565b80601f01602080910402602001604051908101604052809291908181526020018280546102d29061241f565b801561031f5780601f106102f45761010080835404028352916020019161031f565b820191906000526020600020905b81548152906001019060200180831161030257829003601f168201915b5050505050908060010160009054906101000a900460ff16905082565b8060006004600083815260200190815260200160002060000180546103609061241f565b80601f016020809104026020016040519081016040528092919081815260200182805461038c9061241f565b80156103d95780601f106103ae576101008083540402835291602001916103d9565b820191906000526020600020905b8154815290600101906020018083116103bc57829003601f168201915b50505050509050600081511415610425576040517f08c379a000000000000000000000000000000000000000000000000000000000815260040161041c90612192565b60405180910390fd5b8260016002811115610460577f4e487b7100000000000000000000000000000000000000000000000000000000600052602160045260246000fd5b6004600083815260200190815260200160002060020160003373ffffffffffffffffffffffffffffffffffffffff1673ffffffffffffffffffffffffffffffffffffffff16815260200190815260200160002060009054906101000a900460ff1660028111156104f9577f4e487b7100000000000000000000000000000000000000000000000000000000600052602160045260246000fd5b14610539576040517f08c379a000000000000000000000000000000000000000000000000000000000815260040161053090612112565b60405180910390fd5b600160009054906101000a900473ffffffffffffffffffffffffffffffffffffffff1673ffffffffffffffffffffffffffffffffffffffff1663a9059cbb336003546040518363ffffffff1660e01b8152600401610598929190611fd1565b602060405180830381600087803b1580156105b257600080fd5b505af11580156105c6573d6000803e3d6000fd5b505050506040513d601f19601f820116820180604052508101906105ea9190611990565b50600060046000868152602001908152602001600020905060018160010160008282829054906101000a900460ff1661062391906122ee565b92506101000a81548160ff021916908360ff16021790555060028160020160003373ffffffffffffffffffffffffffffffffffffffff1673ffffffffffffffffffffffffffffffffffffffff16815260200190815260200160002060006101000a81548160ff021916908360028111156106c6577f4e487b7100000000000000000000000000000000000000000000000000000000600052602160045260246000fd5b02179055507ff7e3cfd2f29d471df201a83cf2eb6b46ce10fa11fa384624d09a028fe39c785185336040516106fc929190612037565b60405180910390a15050505050565b6000600580549050905090565b6005818154811061072857600080fd5b906000526020600020016000915090505481565b6107446116e2565b73ffffffffffffffffffffffffffffffffffffffff166107626107c4565b73ffffffffffffffffffffffffffffffffffffffff16146107b8576040517f08c379a00000000000000000000000000000000000000000000000000000000081526004016107af906121d2565b60405180910390fd5b6107c260006116ea565b565b60008060009054906101000a900473ffffffffffffffffffffffffffffffffffffffff16905090565b600160009054906101000a900473ffffffffffffffffffffffffffffffffffffffff1673ffffffffffffffffffffffffffffffffffffffff1663d505accf333088888888886040518863ffffffff1660e01b81526004016108549796959493929190611f62565b600060405180830381600087803b15801561086e57600080fd5b505af1158015610882573d6000803e3d6000fd5b5050505061088f86610cad565b505050505050565b61089f6116e2565b73ffffffffffffffffffffffffffffffffffffffff166108bd6107c4565b73ffffffffffffffffffffffffffffffffffffffff1614610913576040517f08c379a000000000000000000000000000000000000000000000000000000000815260040161090a906121d2565b60405180910390fd5b600061091e836117ae565b905060006004600083815260200190815260200160002060000180546109439061241f565b80601f016020809104026020016040519081016040528092919081815260200182805461096f9061241f565b80156109bc5780601f10610991576101008083540402835291602001916109bc565b820191906000526020600020905b81548152906001019060200180831161099f57829003601f168201915b505050505090506000815114610a07576040517f08c379a00000000000000000000000000000000000000000000000000000000081526004016109fe90612172565b60405180910390fd5b600060046000848152602001908152602001600020905084816000019080519060200190610a369291906117de565b50838160010160006101000a81548160ff021916908360ff16021790555060058390806001815401808255809150506001900390600052602060002001600090919091909150557fae138c764e7c70ea74509cdb257e1d14b93cea040b69c9370d832589f3e1ae78838686604051610ab093929190612060565b60405180910390a15050505050565b610ac76116e2565b73ffffffffffffffffffffffffffffffffffffffff16610ae56107c4565b73ffffffffffffffffffffffffffffffffffffffff1614610b3b576040517f08c379a0000000000000000000000000000000000000000000000000000000008152600401610b32906121d2565b60405180910390fd5b816000600460008381526020019081526020016000206000018054610b5f9061241f565b80601f0160208091040260200160405190810160405280929190818152602001828054610b8b9061241f565b8015610bd85780601f10610bad57610100808354040283529160200191610bd8565b820191906000526020600020905b815481529060010190602001808311610bbb57829003601f168201915b50505050509050600081511415610c24576040517f08c379a0000000000000000000000000000000000000000000000000000000008152600401610c1b90612192565b60405180910390fd5b826004600086815260200190815260200160002060010160008282829054906101000a900460ff16610c5691906122ee565b92506101000a81548160ff021916908360ff1602179055507f877aeedb0c18f160d87c33bfbe1fa6cc635a36a989610c799655a1c2e53865fe8484604051610c9f92919061209e565b60405180910390a150505050565b600254600160009054906101000a900473ffffffffffffffffffffffffffffffffffffffff1673ffffffffffffffffffffffffffffffffffffffff166370a08231336040518263ffffffff1660e01b8152600401610d0b9190611f10565b60206040518083038186803b158015610d2357600080fd5b505afa158015610d37573d6000803e3d6000fd5b505050506040513d601f19601f82011682018060405250810190610d5b9190611b24565b1015610d9c576040517f08c379a0000000000000000000000000000000000000000000000000000000008152600401610d93906121f2565b60405180910390fd5b806000600460008381526020019081526020016000206000018054610dc09061241f565b80601f0160208091040260200160405190810160405280929190818152602001828054610dec9061241f565b8015610e395780601f10610e0e57610100808354040283529160200191610e39565b820191906000526020600020905b815481529060010190602001808311610e1c57829003601f168201915b50505050509050600081511415610e85576040517f08c379a0000000000000000000000000000000000000000000000000000000008152600401610e7c90612192565b60405180910390fd5b8260006004600083815260200190815260200160002060010160009054906101000a900460ff1660ff1611610eef576040517f08c379a0000000000000000000000000000000000000000000000000000000008152600401610ee6906121b2565b60405180910390fd5b8360016002811115610f2a577f4e487b7100000000000000000000000000000000000000000000000000000000600052602160045260246000fd5b6004600083815260200190815260200160002060020160003373ffffffffffffffffffffffffffffffffffffffff1673ffffffffffffffffffffffffffffffffffffffff16815260200190815260200160002060009054906101000a900460ff166002811115610fc3577f4e487b7100000000000000000000000000000000000000000000000000000000600052602160045260246000fd5b1415611004576040517f08c379a0000000000000000000000000000000000000000000000000000000008152600401610ffb90612132565b60405180910390fd5b600160009054906101000a900473ffffffffffffffffffffffffffffffffffffffff1673ffffffffffffffffffffffffffffffffffffffff166323b872dd33306002546040518463ffffffff1660e01b815260040161106593929190611f2b565b602060405180830381600087803b15801561107f57600080fd5b505af1158015611093573d6000803e3d6000fd5b505050506040513d601f19601f820116820180604052508101906110b79190611990565b50600060046000878152602001908152602001600020905060018160010160008282829054906101000a900460ff166110f09190612325565b92506101000a81548160ff021916908360ff16021790555060006002811115611142577f4e487b7100000000000000000000000000000000000000000000000000000000600052602160045260246000fd5b8160020160003373ffffffffffffffffffffffffffffffffffffffff1673ffffffffffffffffffffffffffffffffffffffff16815260200190815260200160002060009054906101000a900460ff1660028111156111c9577f4e487b7100000000000000000000000000000000000000000000000000000000600052602160045260246000fd5b14156112355780600301339080600181540180825580915050600190039060005260206000200160009091909190916101000a81548173ffffffffffffffffffffffffffffffffffffffff021916908373ffffffffffffffffffffffffffffffffffffffff1602179055505b60018160020160003373ffffffffffffffffffffffffffffffffffffffff1673ffffffffffffffffffffffffffffffffffffffff16815260200190815260200160002060006101000a81548160ff021916908360028111156112c0577f4e487b7100000000000000000000000000000000000000000000000000000000600052602160045260246000fd5b02179055507f1e292fc3085ecf05e97f590c8ca9756cf4618ca0fb49d5a42419e1c311335da886336040516112f6929190612037565b60405180910390a1505050505050565b600081600060046000838152602001908152602001600020600001805461132c9061241f565b80601f01602080910402602001604051908101604052809291908181526020018280546113589061241f565b80156113a55780601f1061137a576101008083540402835291602001916113a5565b820191906000526020600020905b81548152906001019060200180831161138857829003601f168201915b505050505090506000815114156113f1576040517f08c379a00000000000000000000000000000000000000000000000000000000081526004016113e890612192565b60405180910390fd5b6004600085815260200190815260200160002060020160003373ffffffffffffffffffffffffffffffffffffffff1673ffffffffffffffffffffffffffffffffffffffff16815260200190815260200160002060009054906101000a900460ff1692505050919050565b60608160006004600083815260200190815260200160002060000180546114819061241f565b80601f01602080910402602001604051908101604052809291908181526020018280546114ad9061241f565b80156114fa5780601f106114cf576101008083540402835291602001916114fa565b820191906000526020600020905b8154815290600101906020018083116114dd57829003601f168201915b50505050509050600081511415611546576040517f08c379a000000000000000000000000000000000000000000000000000000000815260040161153d90612192565b60405180910390fd5b600460008581526020019081526020016000206003018054806020026020016040519081016040528092919081815260200182805480156115dc57602002820191906000526020600020905b8160009054906101000a900473ffffffffffffffffffffffffffffffffffffffff1673ffffffffffffffffffffffffffffffffffffffff1681526020019060010190808311611592575b505050505092505050919050565b6115f26116e2565b73ffffffffffffffffffffffffffffffffffffffff166116106107c4565b73ffffffffffffffffffffffffffffffffffffffff1614611666576040517f08c379a000000000000000000000000000000000000000000000000000000000815260040161165d906121d2565b60405180910390fd5b600073ffffffffffffffffffffffffffffffffffffffff168173ffffffffffffffffffffffffffffffffffffffff1614156116d6576040517f08c379a00000000000000000000000000000000000000000000000000000000081526004016116cd90612152565b60405180910390fd5b6116df816116ea565b50565b600033905090565b60008060009054906101000a900473ffffffffffffffffffffffffffffffffffffffff169050816000806101000a81548173ffffffffffffffffffffffffffffffffffffffff021916908373ffffffffffffffffffffffffffffffffffffffff1602179055508173ffffffffffffffffffffffffffffffffffffffff168173ffffffffffffffffffffffffffffffffffffffff167f8be0079c531659141344cd1fd0a4f28419497f9722a3daafe3b4186f6b6457e060405160405180910390a35050565b6000816040516020016117c19190611ef9565b604051602081830303815290604052805190602001209050919050565b8280546117ea9061241f565b90600052602060002090601f01602090048101928261180c5760008555611853565b82601f1061182557805160ff1916838001178555611853565b82800160010185558215611853579182015b82811115611852578251825591602001919060010190611837565b5b5090506118609190611864565b5090565b5b8082111561187d576000816000905550600101611865565b5090565b600061189461188f8461225e565b61222d565b9050828152602081018484840111156118ac57600080fd5b6118b78482856123dd565b509392505050565b6000813590506118ce81612532565b92915050565b6000815190506118e381612549565b92915050565b6000813590506118f881612560565b92915050565b600082601f83011261190f57600080fd5b813561191f848260208601611881565b91505092915050565b60008135905061193781612577565b92915050565b60008151905061194c81612577565b92915050565b6000813590506119618161258e565b92915050565b60006020828403121561197957600080fd5b6000611987848285016118bf565b91505092915050565b6000602082840312156119a257600080fd5b60006119b0848285016118d4565b91505092915050565b6000602082840312156119cb57600080fd5b60006119d9848285016118e9565b91505092915050565b60008060008060008060c087890312156119fb57600080fd5b6000611a0989828a016118e9565b9650506020611a1a89828a01611928565b9550506040611a2b89828a01611928565b9450506060611a3c89828a01611952565b9350506080611a4d89828a016118e9565b92505060a0611a5e89828a016118e9565b9150509295509295509295565b60008060408385031215611a7e57600080fd5b6000611a8c858286016118e9565b9250506020611a9d85828601611952565b9150509250929050565b60008060408385031215611aba57600080fd5b600083013567ffffffffffffffff811115611ad457600080fd5b611ae0858286016118fe565b9250506020611af185828601611952565b9150509250929050565b600060208284031215611b0d57600080fd5b6000611b1b84828501611928565b91505092915050565b600060208284031215611b3657600080fd5b6000611b448482850161193d565b91505092915050565b6000611b598383611b65565b60208301905092915050565b611b6e81612359565b82525050565b611b7d81612359565b82525050565b6000611b8e8261229e565b611b9881856122c1565b9350611ba38361228e565b8060005b83811015611bd4578151611bbb8882611b4d565b9750611bc6836122b4565b925050600181019050611ba7565b5085935050505092915050565b611bea81612377565b82525050565b611bf9816123cb565b82525050565b6000611c0a826122a9565b611c1481856122d2565b9350611c248185602086016123ec565b611c2d8161250d565b840191505092915050565b6000611c43826122a9565b611c4d81856122e3565b9350611c5d8185602086016123ec565b80840191505092915050565b6000611c76601c836122d2565b91507f596f7520646f206e6f7420686176652073756368206120626f6f6b21000000006000830152602082019050919050565b6000611cb6602a836122d2565b91507f5468697320626f6f6b2068617320616c7265616479206265656e2074616b656e60008301527f2066726f6d20796f7521000000000000000000000000000000000000000000006020830152604082019050919050565b6000611d1c6026836122d2565b91507f4f776e61626c653a206e6577206f776e657220697320746865207a65726f206160008301527f64647265737300000000000000000000000000000000000000000000000000006020830152604082019050919050565b6000611d826020836122d2565b91507f54686520626f6f6b20686173206265656e20616c7265616479206164646564216000830152602082019050919050565b6000611dc26019836122d2565b91507f5468697320626f6f6b20646f6573206e6f7420657869737421000000000000006000830152602082019050919050565b6000611e026027836122d2565b91507f5468657265206973206e6f20617661696c61626c6520636f706965732072696760008301527f6874206e6f7721000000000000000000000000000000000000000000000000006020830152604082019050919050565b6000611e686020836122d2565b91507f4f776e61626c653a2063616c6c6572206973206e6f7420746865206f776e65726000830152602082019050919050565b6000611ea8601a836122d2565b91507f446f6573206e6f74206861766520656e6f756768206d6f6e65790000000000006000830152602082019050919050565b611ee4816123b4565b82525050565b611ef3816123be565b82525050565b6000611f058284611c38565b915081905092915050565b6000602082019050611f256000830184611b74565b92915050565b6000606082019050611f406000830186611b74565b611f4d6020830185611b74565b611f5a6040830184611edb565b949350505050565b600060e082019050611f77600083018a611b74565b611f846020830189611b74565b611f916040830188611edb565b611f9e6060830187611edb565b611fab6080830186611eea565b611fb860a0830185611be1565b611fc560c0830184611be1565b98975050505050505050565b6000604082019050611fe66000830185611b74565b611ff36020830184611edb565b9392505050565b600060208201905081810360008301526120148184611b83565b905092915050565b60006020820190506120316000830184611be1565b92915050565b600060408201905061204c6000830185611be1565b6120596020830184611b74565b9392505050565b60006060820190506120756000830186611be1565b81810360208301526120878185611bff565b90506120966040830184611eea565b949350505050565b60006040820190506120b36000830185611be1565b6120c06020830184611eea565b9392505050565b60006020820190506120dc6000830184611bf0565b92915050565b600060408201905081810360008301526120fc8185611bff565b905061210b6020830184611eea565b9392505050565b6000602082019050818103600083015261212b81611c69565b9050919050565b6000602082019050818103600083015261214b81611ca9565b9050919050565b6000602082019050818103600083015261216b81611d0f565b9050919050565b6000602082019050818103600083015261218b81611d75565b9050919050565b600060208201905081810360008301526121ab81611db5565b9050919050565b600060208201905081810360008301526121cb81611df5565b9050919050565b600060208201905081810360008301526121eb81611e5b565b9050919050565b6000602082019050818103600083015261220b81611e9b565b9050919050565b60006020820190506122276000830184611edb565b92915050565b6000604051905081810181811067ffffffffffffffff82111715612254576122536124de565b5b8060405250919050565b600067ffffffffffffffff821115612279576122786124de565b5b601f19601f8301169050602081019050919050565b6000819050602082019050919050565b600081519050919050565b600081519050919050565b6000602082019050919050565b600082825260208201905092915050565b600082825260208201905092915050565b600081905092915050565b60006122f9826123be565b9150612304836123be565b92508260ff0382111561231a57612319612451565b5b828201905092915050565b6000612330826123be565b915061233b836123be565b92508282101561234e5761234d612451565b5b828203905092915050565b600061236482612394565b9050919050565b60008115159050919050565b6000819050919050565b600081905061238f8261251e565b919050565b600073ffffffffffffffffffffffffffffffffffffffff82169050919050565b6000819050919050565b600060ff82169050919050565b60006123d682612381565b9050919050565b82818337600083830152505050565b60005b8381101561240a5780820151818401526020810190506123ef565b83811115612419576000848401525b50505050565b6000600282049050600182168061243757607f821691505b6020821081141561244b5761244a6124af565b5b50919050565b7f4e487b7100000000000000000000000000000000000000000000000000000000600052601160045260246000fd5b7f4e487b7100000000000000000000000000000000000000000000000000000000600052602160045260246000fd5b7f4e487b7100000000000000000000000000000000000000000000000000000000600052602260045260246000fd5b7f4e487b7100000000000000000000000000000000000000000000000000000000600052604160045260246000fd5b6000601f19601f8301169050919050565b6003811061252f5761252e612480565b5b50565b61253b81612359565b811461254657600080fd5b50565b6125528161236b565b811461255d57600080fd5b50565b61256981612377565b811461257457600080fd5b50565b612580816123b4565b811461258b57600080fd5b50565b612597816123be565b81146125a257600080fd5b5056fea264697066735822122006ff739b0b93c66d4050538f43a666a1454509955953eca43556c8f0b08dd50f64736f6c63430008000033",
  "linkReferences": {},
  "deployedLinkReferences": {}
}